:100000000C9435000C945D000C945D000C945D0024
:100010000C945D000C945D000C945D000C945D00EC
:100020000C945D000C945D000C945D000C945D00DC
:100030000C945D000C945D000C945D000C945D00CC
:100040000C94BD010C945D000C942D020C940702DD
:100050000C945D000C945D000C945D000C945D00AC
:100060000C945D000C945D00360311241FBECFEF8D
:10007000D8E0DEBFCDBF11E0A0E0B1E0EAE1F7E0FB
:1000800002C005900D92A632B107D9F721E0A6E291
:10009000B1E001C01D92AE3CB207E1F710E0C5E34C
:1000A000D0E004C02197FE010E948503C433D1072C
:1000B000C9F70E945F020C948B030C940000AF926E
:1000C000BF92CF92DF92EF92FF920F931F93CF9345
:1000D000DF936C017B018B01040F151FEB015E01A7
:1000E000AE18BF08C017D10759F06991D601ED913C
:1000F000FC910190F081E02DC6010995892B79F7DB
:10010000C501DF91CF911F910F91FF90EF90DF908C
:10011000CF90BF90AF900895FC01538D448D252F53
:1001200030E0842F90E0821B930B541710F0CF9691
:10013000089501970895FC01918D828D981761F0C3
:10014000A28DAE0FBF2FB11D5D968C91928D9F5FDA
:100150009F73928F90E008958FEF9FEF0895FC01B9
:10016000918D828D981731F0828DE80FF11D858D6C
:1001700090E008958FEF9FEF0895FC01918D228DFF
:10018000892F90E0805C9F4F821B91098F73992784
:10019000089581E391E00E94BD0021E0892B09F4DC
:1001A00020E0822F089580E090E0892B29F00E94C2
:1001B000C90081110C9400000895FC01A48DA80FC2
:1001C000B92FB11DA35ABF4F2C91848D90E0019699
:1001D0008F739927848FA689B7892C93A089B189B9
:1001E0008C91837080648C93938D848D981306C05A
:1001F0000288F389E02D80818F7D80830895EF92BE
:10020000FF920F931F93CF93DF93EC0181E0888FD0
:100210009B8D8C8D98131AC0E889F989808185FFA0
:1002200015C09FB7F894EE89FF896083E889F98942
:1002300080818370806480839FBF81E090E0DF9144
:10024000CF911F910F91FF90EF900895F62E0B8D97
:1002500010E00F5F1F4F0F731127E02E8C8D8E1152
:100260000CC00FB607FCFACFE889F989808185FFB9
:10027000F5CFCE010E94DD00F1CFEB8DEC0FFD2F0D
:10028000F11DE35AFF4FF0829FB7F8940B8FEA8974
:10029000FB8980818062CFCFCF93DF93EC01888D83
:1002A0008823B9F0AA89BB89E889F9898C9185FDF1
:1002B00003C0808186FD0DC00FB607FCF7CF8C917F
:1002C00085FFF2CF808185FFEDCFCE010E94DD005A
:1002D000E9CFDF91CF910895FC0101900020E9F76B
:1002E0003197AF01481B590BBC0181E391E00C949D
:1002F0005F008F929F92AF92BF920F931F93CF9305
:10030000DF93CDB7DEB7A1970FB6F894DEBF0FBE6F
:10031000CDBF19A2423008F44AE08E010F5D1F4F95
:10032000842E912CB12CA12CA50194010E94630371
:10033000E62FB901CA01EA30F4F4E05DD801EE938A
:100340008D01232B242B252B79F790E080E010974B
:1003500019F0CD010E946C01A1960FB6F894DEBF92
:100360000FBECDBFDF91CF911F910F91BF90AF9086
:100370009F908F900895E95CE1CF1F920F920FB686
:100380000F9211242F933F938F939F93AF93BF931B
:1003900080912D0190912E01A0912F01B0913001FB
:1003A00030912C0123E0230F2D3758F50196A11D24
:1003B000B11D20932C0180932D0190932E01A093C9
:1003C0002F01B09330018091280190912901A091D3
:1003D0002A01B0912B010196A11DB11D8093280126
:1003E00090932901A0932A01B0932B01BF91AF9163
:1003F0009F918F913F912F910F900FBE0F901F9063
:10040000189526E8230F0296A11DB11DD2CF1F9289
:100410000F920FB60F9211242F933F934F935F9338
:100420006F937F938F939F93AF93BF93EF93FF93BC
:1004300081E391E00E94DD00FF91EF91BF91AF91C8
:100440009F918F917F916F915F914F913F912F91EC
:100450000F900FBE0F901F9018951F920F920FB61E
:100460000F9211242F938F939F93EF93FF93E0911B
:100470004101F09142018081E0914701F0914801F2
:1004800082FD1BC0908180914A018F5F8F73209104
:100490004B01821741F0E0914A01F0E0EF5CFE4F22
:1004A000958F80934A01FF91EF919F918F912F91AA
:1004B0000F900FBE0F901F9018958081F4CF789405
:1004C00084B5826084BD84B5816084BD85B5826059
:1004D00085BD85B5816085BD80916E00816080930A
:1004E0006E00109281008091810082608093810073
:1004F0008091810081608093810080918000816083
:10050000809380008091B10084608093B1008091DD
:10051000B00081608093B00080917A008460809305
:100520007A0080917A00826080937A0080917A00CC
:10053000816080937A0080917A00806880937A004D
:100540001092C100E0914101F091420182E080836C
:10055000E0913D01F0913E011082E0913F01F09168
:10056000400180E1808310924901E0914501F091C2
:10057000460186E08083E0914301F091440180814F
:1005800080618083E0914301F09144018081886023
:100590008083E0914301F0914401808180688083F1
:1005A000E0914301F091440180818F7D8083C0E020
:1005B000D0E081E391E00E94BD00181619060CF00E
:1005C0004AC081E391E00E949B00909327018093B1
:1005D000260182E191E00E946C01609126017091F8
:1005E0002701072E000C880B990B40E10E9479012E
:1005F00080E291E00E946C016091260170912701D8
:10060000072E000C880B990B42E00E94790180E2D2
:1006100091E00E946C01C0902601D09027010D2C22
:10062000000CEE08FF084AE0C701B601F7FE0DC056
:100630006DE281E391E00E94FF0066277727CB01FE
:100640006C197D098E099F094AE00E94790183E2B5
:1006500091E00E946C01209709F4ABCF0E94C90081
:10066000882309F4A6CF0E940000A3CFE1E3F1E0C4
:100670001382128288EE93E0A0E0B0E08483958339
:10068000A683B78384E091E09183808385EC90E03A
:100690009587848784EC90E09787868780EC90E04C
:1006A000918B808B81EC90E0938B828B82EC90E03D
:1006B000958B848B86EC90E0978B868B118E128EB7
:1006C000138E148E0895A1E21A2EAA1BBB1BFD01E6
:1006D0000DC0AA1FBB1FEE1FFF1FA217B307E40721
:1006E000F50720F0A21BB30BE40BF50B661F771F79
:1006F000881F991F1A9469F7609570958095909559
:100700009B01AC01BD01CF010895EE0FFF1F0590C5
:0A071000F491E02D0994F894FFCF56
:10071A0000000000FF005F008C004C01BD009B0040
:10072A00AF004845582042494E204445433A2000EC
:06073A002020000D0A0062
:00000001FF
